{
  "contractName": "DKIM",
  "abi": [
    {
      "constant": true,
      "inputs": [
        {
          "name": "algorithm",
          "type": "uint8"
        },
        {
          "name": "hash",
          "type": "bytes32"
        },
        {
          "name": "signature",
          "type": "bytes"
        },
        {
          "name": "exponent",
          "type": "bytes"
        },
        {
          "name": "modulus",
          "type": "bytes"
        }
      ],
      "name": "verify",
      "outputs": [
        {
          "name": "",
          "type": "bool"
        }
      ],
      "payable": false,
      "stateMutability": "view",
      "type": "function"
    }
  ],
  "bytecode": "0x608060405234801561001057600080fd5b5061050a806100206000396000f3fe608060405234801561001057600080fd5b506004361061002b5760003560e01c806314793e9014610030575b600080fd5b610153600480360360a081101561004657600080fd5b60ff8235169160208101359181019060608101604082013564010000000081111561007057600080fd5b82018360208201111561008257600080fd5b803590602001918460018302840111640100000000831117156100a457600080fd5b9193909290916020810190356401000000008111156100c257600080fd5b8201836020820111156100d457600080fd5b803590602001918460018302840111640100000000831117156100f657600080fd5b91939092909160208101903564010000000081111561011457600080fd5b82018360208201111561012657600080fd5b8035906020019184600183028401116401000000008311171561014857600080fd5b509092509050610167565b604080519115158252519081900360200190f35b6000610212898989898080601f01602080910402602001604051908101604052809392919081815260200183838082843760009201919091525050604080516020601f8d018190048102820181019092528b815292508b91508a908190840183828082843760009201919091525050604080516020601f8c018190048102820181019092528a815292508a915089908190840183828082843760009201919091525061021f92505050565b9998505050505050505050565b60008086600181111561022e57fe5b14156103ee5773__RSASHA1_______________________________63c658da51868686866040518563ffffffff1660e01b815260040180858152602001806020018060200180602001848103845287818151815260200191508051906020019080838360005b838110156102ac578181015183820152602001610294565b50505050905090810190601f1680156102d95780820380516001836020036101000a031916815260200191505b50848103835286518152865160209182019188019080838360005b8381101561030c5781810151838201526020016102f4565b50505050905090810190601f1680156103395780820380516001836020036101000a031916815260200191505b50848103825285518152855160209182019187019080838360005b8381101561036c578181015183820152602001610354565b50505050905090810190601f1680156103995780820380516001836020036101000a031916815260200191505b5097505050505050505060206040518083038186803b1580156103bb57600080fd5b505af41580156103cf573d6000803e3d6000fd5b505050506040513d60208110156103e557600080fd5b505190506104b3565b60018660018111156103fc57fe5b14156104795773__RSASHA256_____________________________63c658da51868686866040518563ffffffff1660e01b81526004018085815260200180602001806020018060200184810384528781815181526020019150805190602001908083836000838110156102ac578181015183820152602001610294565b604051600160e51b62461bcd0281526004018080602001828103825260228152602001806104bd6022913960400191505060405180910390fd5b9594505050505056fe7369676e696e6720616c676f726974686d206973206e6f7420737570706f72746564a165627a7a723058209580f6bdc711a80bcb10c1ba9847f2e0823f7d484556444c132f09fcddf0e45b0029",
  "source": "pragma solidity ^0.5.8;\n\nimport \"./algorithms/RSASHA1.sol\";\nimport \"./algorithms/RSASHA256.sol\";\n\ncontract DKIM {\n  enum Algorithms {\n    RSASHA1,\n    RSASHA256\n  }\n\n  function _verify(\n    Algorithms algorithm,\n    bytes32 hash,\n    bytes memory signature,\n    bytes memory exponent,\n    bytes memory modulus\n  ) internal view returns (bool) {\n    if (algorithm == Algorithms.RSASHA1) {\n      return RSASHA1.verify(\n        hash,\n        signature,\n        exponent,\n        modulus\n      );\n    } else if (algorithm == Algorithms.RSASHA256) {\n      return RSASHA256.verify(\n        hash,\n        signature,\n        exponent,\n        modulus\n      );\n    }\n\n    revert(\"signing algorithm is not supported\");\n  }\n\n  function verify(\n    Algorithms algorithm,\n    bytes32 hash,\n    bytes calldata signature,\n    bytes calldata exponent,\n    bytes calldata modulus\n  ) external view returns (bool) {\n    return _verify(\n      algorithm,\n      hash,\n      signature,\n      exponent,\n      modulus\n    );\n  }\n}",
  "sourcePath": "/c/Users/stive/Documents/work/adex/dkim/contracts/DKIM.sol",
  "compiler": {
    "name": "solc",
    "version": "0.5.8+commit.23d335f2.Emscripten.clang"
  },
  "schemaVersion": "3.0.17",
  "updatedAt": "2019-11-11T00:51:34.932Z",
  "networkType": "ethereum",
  "devdoc": {
    "methods": {}
  },
  "userdoc": {
    "methods": {}
  }
}