{
  "contractName": "RSASHA256Algorithm",
  "abi": [
    {
      "constant": true,
      "inputs": [
        {
          "name": "hash",
          "type": "bytes32"
        },
        {
          "name": "exponent",
          "type": "bytes"
        },
        {
          "name": "modulus",
          "type": "bytes"
        },
        {
          "name": "sig",
          "type": "bytes"
        }
      ],
      "name": "verify",
      "outputs": [
        {
          "name": "",
          "type": "bool"
        }
      ],
      "payable": false,
      "stateMutability": "view",
      "type": "function"
    }
  ],
  "bytecode": "0x608060405234801561001057600080fd5b50610568806100206000396000f3fe608060405234801561001057600080fd5b506004361061002b5760003560e01c8063c658da5114610030575b600080fd5b61014b6004803603608081101561004657600080fd5b8135919081019060408101602082013564010000000081111561006857600080fd5b82018360208201111561007a57600080fd5b8035906020019184600183028401116401000000008311171561009c57600080fd5b9193909290916020810190356401000000008111156100ba57600080fd5b8201836020820111156100cc57600080fd5b803590602001918460018302840111640100000000831117156100ee57600080fd5b91939092909160208101903564010000000081111561010c57600080fd5b82018360208201111561011e57600080fd5b8035906020019184600183028401116401000000008311171561014057600080fd5b50909250905061015f565b604080519115158252519081900360200190f35b600080606061020b87878080601f01602080910402602001604051908101604052809392919081815260200183838082843760009201919091525050604080516020601f8f018190048102820181019092528d815292508d91508c908190840183828082843760009201919091525050604080516020601f8c018190048102820181019092528a815292508a915089908190840183828082843760009201919091525061024092505050565b90925090508180156102325750805161022f908290601f190163ffffffff61025b16565b8a145b9a9950505050505050505050565b6000606061024f838587610277565b91509150935093915050565b6000825182602001111561026e57600080fd5b50016020015190565b60006060600083518551875160600101019050610292610522565b6102a2818363ffffffff61035d16565b5086516102b690829063ffffffff61039d16565b5085516102ca90829063ffffffff61039d16565b5084516102de90829063ffffffff61039d16565b506102ef818863ffffffff6103be16565b50610300818763ffffffff6103be16565b50610311818663ffffffff6103be16565b5084516040519080825280601f01601f19166020018201604052801561033e576020820181803883390190505b50925084516020840183602084510160055afa93505050935093915050565b610365610522565b602082061561037a5760208206602003820191505b506020808301829052604080518085526000815283019091019052815b92915050565b6103a5610522565b6103b7838460000151518460206103d8565b9392505050565b6103c6610522565b6103b783846000015151848551610442565b6103e0610522565b846020015184830111156103fd576103fd858584016002026104ee565b60006001836101000a0390508260200360080284901c935085518386820101858319825116178152815185880111156104365784870182525b50959695505050505050565b61044a610522565b825182111561045857600080fd5b84602001518285011115610482576104828561047a876020015187860161050b565b6002026104ee565b6000808651805187602083010193508088870111156104a15787860182525b505050602084015b602084106104c85780518252601f1990930192602091820191016104a9565b51815160001960208690036101000a019081169019919091161790525083949350505050565b81516104fa838361035d565b5061050583826103be565b50505050565b60008183111561051c575081610397565b50919050565b60405180604001604052806060815260200160008152509056fea165627a7a72305820d4ea83ecc117e898114a43f869e747a07bf3542d1fd4e6611630545422f310890029",
  "source": "pragma solidity >0.4.23;\n\nimport \"./BytesUtils.sol\";\nimport \"./RSAVerify.sol\";\n\n/**\n* @dev Implements the DNSSEC RSASHA256 algorithm.\n*/\ncontract RSASHA256Algorithm {\n    using BytesUtils for *;\n\n    function verify(bytes32 hash, bytes calldata exponent, bytes calldata modulus, bytes calldata sig) external view returns (bool) {\n        // Recover the message from the signature\n        bool ok;\n        bytes memory result;\n        (ok, result) = RSAVerify.rsarecover(modulus, exponent, sig);\n\n        // Verify it ends with the hash of our data\n        return ok && hash == result.readBytes32(result.length - 32);\n    }\n}\n",
  "sourcePath": "/c/Users/stive/Documents/work/adex/dkim/contracts/Test/RSASHA256Algorithm.sol",
  "compiler": {
    "name": "solc",
    "version": "0.5.8+commit.23d335f2.Emscripten.clang"
  },
  "schemaVersion": "3.0.17",
  "updatedAt": "2019-11-10T16:19:29.396Z",
  "networkType": "ethereum",
  "devdoc": {
    "details": "Implements the DNSSEC RSASHA256 algorithm.",
    "methods": {}
  },
  "userdoc": {
    "methods": {}
  }
}