{
  "contractName": "RSASHA256",
  "abi": [
    {
      "constant": true,
      "inputs": [
        {
          "name": "hash",
          "type": "bytes32"
        },
        {
          "name": "sig",
          "type": "bytes"
        },
        {
          "name": "exponent",
          "type": "bytes"
        },
        {
          "name": "modulus",
          "type": "bytes"
        }
      ],
      "name": "verify",
      "outputs": [
        {
          "name": "",
          "type": "bool"
        }
      ],
      "payable": false,
      "stateMutability": "view",
      "type": "function"
    }
  ],
  "bytecode": "0x610583610026600b82828239805160001a60731461001957fe5b30600052607381538281f3fe73000000000000000000000000000000000000000030146080604052600436106100355760003560e01c8063c658da511461003a575b600080fd5b6101556004803603608081101561005057600080fd5b8135919081019060408101602082013564010000000081111561007257600080fd5b82018360208201111561008457600080fd5b803590602001918460018302840111640100000000831117156100a657600080fd5b9193909290916020810190356401000000008111156100c457600080fd5b8201836020820111156100d657600080fd5b803590602001918460018302840111640100000000831117156100f857600080fd5b91939092909160208101903564010000000081111561011657600080fd5b82018360208201111561012857600080fd5b8035906020019184600183028401116401000000008311171561014a57600080fd5b509092509050610169565b604080519115158252519081900360200190f35b600080606061022685858080601f01602080910402602001604051908101604052809392919081815260200183838082843760009201919091525050604080516020601f8d018190048102820181019092528b815292508b91508a9081908401838280828437600081840152601f19601f820116905080830192505050505050508b8b8080601f01602080910402602001604051908101604052809392919081815260200183838082843760009201919091525061025b92505050565b909250905081801561024d5750805161024a908290601f190163ffffffff61027616565b8a145b9a9950505050505050505050565b6000606061026a838587610292565b91509150935093915050565b6000825182602001111561028957600080fd5b50016020015190565b600060606000835185518751606001010190506102ad61053d565b6102bd818363ffffffff61037816565b5086516102d190829063ffffffff6103b816565b5085516102e590829063ffffffff6103b816565b5084516102f990829063ffffffff6103b816565b5061030a818863ffffffff6103d916565b5061031b818763ffffffff6103d916565b5061032c818663ffffffff6103d916565b5084516040519080825280601f01601f191660200182016040528015610359576020820181803883390190505b50925084516020840183602084510160055afa93505050935093915050565b61038061053d565b60208206156103955760208206602003820191505b506020808301829052604080518085526000815283019091019052815b92915050565b6103c061053d565b6103d2838460000151518460206103f3565b9392505050565b6103e161053d565b6103d28384600001515184855161045d565b6103fb61053d565b846020015184830111156104185761041885858401600202610509565b60006001836101000a0390508260200360080284901c935085518386820101858319825116178152815185880111156104515784870182525b50959695505050505050565b61046561053d565b825182111561047357600080fd5b8460200151828501111561049d5761049d856104958760200151878601610526565b600202610509565b6000808651805187602083010193508088870111156104bc5787860182525b505050602084015b602084106104e35780518252601f1990930192602091820191016104c4565b51815160001960208690036101000a019081169019919091161790525083949350505050565b81516105158383610378565b5061052083826103d9565b50505050565b6000818311156105375750816103b2565b50919050565b60405180604001604052806060815260200160008152509056fea165627a7a72305820b6fffe9290a96a8ef7b78178874675fdeb260094c0b82ddaf092dd7fcf012f710029",
  "source": "pragma solidity >0.4.23;\n\nimport \"../utils/Bytes.sol\";\nimport \"./RSAVerify.sol\";\n\n/**\n* @dev Implements the RSASHA256 algorithm.\n*/\nlibrary RSASHA256 {\n  using BytesUtils for *;\n\n  function verify(bytes32 hash, bytes calldata sig, bytes calldata exponent, bytes calldata modulus) external view returns (bool) {\n    // Recover the message from the signature\n    bool ok;\n    bytes memory result;\n    (ok, result) = RSAVerify.rsarecover(modulus, exponent, sig);\n\n    // Verify it ends with the hash of our data\n    return ok && hash == result.readBytes32(result.length - 32);\n  }\n}\n",
  "sourcePath": "/c/Users/stive/Documents/work/adex/dkim/contracts/algorithms/RSASHA256.sol",
  "compiler": {
    "name": "solc",
    "version": "0.5.8+commit.23d335f2.Emscripten.clang"
  },
  "schemaVersion": "3.0.17",
  "updatedAt": "2019-11-11T00:51:34.925Z",
  "networkType": "ethereum",
  "devdoc": {
    "details": "Implements the RSASHA256 algorithm.",
    "methods": {}
  },
  "userdoc": {
    "methods": {}
  }
}