{
  "contractName": "Service",
  "abi": [
    {
      "constant": true,
      "inputs": [
        {
          "name": "",
          "type": "string"
        }
      ],
      "name": "records",
      "outputs": [
        {
          "name": "exponent",
          "type": "bytes"
        },
        {
          "name": "modulus",
          "type": "bytes"
        }
      ],
      "payable": false,
      "stateMutability": "view",
      "type": "function"
    },
    {
      "constant": true,
      "inputs": [],
      "name": "oracle",
      "outputs": [
        {
          "name": "",
          "type": "address"
        }
      ],
      "payable": false,
      "stateMutability": "view",
      "type": "function"
    },
    {
      "inputs": [
        {
          "name": "_oracle",
          "type": "address"
        }
      ],
      "payable": false,
      "stateMutability": "nonpayable",
      "type": "constructor"
    },
    {
      "anonymous": false,
      "inputs": [
        {
          "indexed": false,
          "name": "domain",
          "type": "string"
        }
      ],
      "name": "LookupRecord",
      "type": "event"
    },
    {
      "constant": false,
      "inputs": [
        {
          "name": "domain",
          "type": "string"
        },
        {
          "name": "exponent",
          "type": "bytes"
        },
        {
          "name": "modulus",
          "type": "bytes"
        }
      ],
      "name": "setRecord",
      "outputs": [],
      "payable": false,
      "stateMutability": "nonpayable",
      "type": "function"
    },
    {
      "constant": false,
      "inputs": [
        {
          "name": "domain",
          "type": "string"
        }
      ],
      "name": "removeRecord",
      "outputs": [],
      "payable": false,
      "stateMutability": "nonpayable",
      "type": "function"
    },
    {
      "constant": false,
      "inputs": [
        {
          "name": "domain",
          "type": "string"
        }
      ],
      "name": "lookupRecord",
      "outputs": [],
      "payable": false,
      "stateMutability": "nonpayable",
      "type": "function"
    },
    {
      "constant": true,
      "inputs": [
        {
          "name": "algorithm",
          "type": "uint8"
        },
        {
          "name": "hash",
          "type": "bytes32"
        },
        {
          "name": "signature",
          "type": "bytes"
        },
        {
          "name": "exponent",
          "type": "bytes"
        },
        {
          "name": "modulus",
          "type": "bytes"
        }
      ],
      "name": "verifySelf",
      "outputs": [
        {
          "name": "",
          "type": "bool"
        }
      ],
      "payable": false,
      "stateMutability": "view",
      "type": "function"
    },
    {
      "constant": true,
      "inputs": [
        {
          "name": "algorithm",
          "type": "uint8"
        },
        {
          "name": "hash",
          "type": "bytes32"
        },
        {
          "name": "signature",
          "type": "bytes"
        },
        {
          "name": "exponent",
          "type": "bytes"
        },
        {
          "name": "modulus",
          "type": "bytes"
        }
      ],
      "name": "verify",
      "outputs": [
        {
          "name": "",
          "type": "bool"
        }
      ],
      "payable": false,
      "stateMutability": "view",
      "type": "function"
    },
    {
      "constant": true,
      "inputs": [
        {
          "name": "algorithm",
          "type": "uint8"
        },
        {
          "name": "hash",
          "type": "bytes32"
        },
        {
          "name": "signature",
          "type": "bytes"
        },
        {
          "name": "domain",
          "type": "string"
        }
      ],
      "name": "verify",
      "outputs": [
        {
          "name": "",
          "type": "bool"
        }
      ],
      "payable": false,
      "stateMutability": "view",
      "type": "function"
    }
  ],
  "bytecode": "0x608060405234801561001057600080fd5b506040516020806110b58339810180604052602081101561003057600080fd5b5051600080546001600160a01b039092166001600160a01b0319909216919091179055611053806100626000396000f3fe608060405234801561001057600080fd5b50600436106100885760003560e01c80637dc0d1d01161005b5780637dc0d1d0146104be5780638fb124fa146104e257806391e0b9301461008d578063eefa2d501461055057610088565b806314793e901461008d57806316d894c6146101be57806327d69d68146102ce578063541e771d1461033c575b600080fd5b6101aa600480360360a08110156100a357600080fd5b60ff82351691602081013591810190606081016040820135600160201b8111156100cc57600080fd5b8201836020820111156100de57600080fd5b803590602001918460018302840111600160201b831117156100ff57600080fd5b919390929091602081019035600160201b81111561011c57600080fd5b82018360208201111561012e57600080fd5b803590602001918460018302840111600160201b8311171561014f57600080fd5b919390929091602081019035600160201b81111561016c57600080fd5b82018360208201111561017e57600080fd5b803590602001918460018302840111600160201b8311171561019f57600080fd5b50909250905061061d565b604080519115158252519081900360200190f35b6102cc600480360360608110156101d457600080fd5b810190602081018135600160201b8111156101ee57600080fd5b82018360208201111561020057600080fd5b803590602001918460018302840111600160201b8311171561022157600080fd5b919390929091602081019035600160201b81111561023e57600080fd5b82018360208201111561025057600080fd5b803590602001918460018302840111600160201b8311171561027157600080fd5b919390929091602081019035600160201b81111561028e57600080fd5b8201836020820111156102a057600080fd5b803590602001918460018302840111600160201b831117156102c157600080fd5b5090925090506106d5565b005b6102cc600480360360208110156102e457600080fd5b810190602081018135600160201b8111156102fe57600080fd5b82018360208201111561031057600080fd5b803590602001918460018302840111600160201b8311171561033157600080fd5b5090925090506107f9565b6103e06004803603602081101561035257600080fd5b810190602081018135600160201b81111561036c57600080fd5b82018360208201111561037e57600080fd5b803590602001918460018302840111600160201b8311171561039f57600080fd5b91908080601f01602080910402602001604051908101604052809392919081815260200183838082843760009201919091525092955061085d945050505050565b604051808060200180602001838103835285818151815260200191508051906020019080838360005b83811015610421578181015183820152602001610409565b50505050905090810190601f16801561044e5780820380516001836020036101000a031916815260200191505b50838103825284518152845160209182019186019080838360005b83811015610481578181015183820152602001610469565b50505050905090810190601f1680156104ae5780820380516001836020036101000a031916815260200191505b5094505050505060405180910390f35b6104c66109a4565b604080516001600160a01b039092168252519081900360200190f35b6102cc600480360360208110156104f857600080fd5b810190602081018135600160201b81111561051257600080fd5b82018360208201111561052457600080fd5b803590602001918460018302840111600160201b8311171561054557600080fd5b5090925090506109b3565b6101aa6004803603608081101561056657600080fd5b60ff82351691602081013591810190606081016040820135600160201b81111561058f57600080fd5b8201836020820111156105a157600080fd5b803590602001918460018302840111600160201b831117156105c257600080fd5b919390929091602081019035600160201b8111156105df57600080fd5b8201836020820111156105f157600080fd5b803590602001918460018302840111600160201b8311171561061257600080fd5b509092509050610a47565b60006106c8898989898080601f01602080910402602001604051908101604052809392919081815260200183838082843760009201919091525050604080516020601f8d018190048102820181019092528b815292508b91508a908190840183828082843760009201919091525050604080516020601f8c018190048102820181019092528a815292508a9150899081908401838280828437600092019190915250610c5792505050565b9998505050505050505050565b6000546001600160a01b0316331461072157604051600160e51b62461bcd02815260040180806020018281038252602f815260200180610ff9602f913960400191505060405180910390fd5b6040805160606020601f87018190040282018101835291810185815290918291908790879081908501838280828437600092019190915250505090825250604080516020601f86018190048102820181019092528481529181019190859085908190840183828082843760009201919091525050509152506040516001908890889080838380828437919091019485525050604051602093819003840190208451805191946107d594508593500190610ef4565b5060208281015180516107ee9260018501920190610ef4565b505050505050505050565b7f1ad0922a4e05d550593295d0e09eb5afb19234fbec036f74da920b05820a1f4f828260405180806020018281038252848482818152602001925080828437600083820152604051601f909101601f19169092018290039550909350505050a15050565b8051602081830181018051600180835293830194830194909420939052825460408051600294831615610100026000190190921693909304601f81018390048302820183019093528281529183918301828280156108fc5780601f106108d1576101008083540402835291602001916108fc565b820191906000526020600020905b8154815290600101906020018083116108df57829003601f168201915b505050505090806001018054600181600116156101000203166002900480601f01602080910402602001604051908101604052809291908181526020018280546001816001161561010002031660029004801561099a5780601f1061096f5761010080835404028352916020019161099a565b820191906000526020600020905b81548152906001019060200180831161097d57829003601f168201915b5050505050905082565b6000546001600160a01b031681565b6000546001600160a01b031633146109ff57604051600160e51b62461bcd02815260040180806020018281038252602f815260200180610ff9602f913960400191505060405180910390fd5b600182826040518083838082843791909101948552505060405192839003602001909220915060009050610a338282610f72565b610a41600183016000610f72565b50505050565b600080600184846040518083838082843780830192505050925050509081526020016040518091039020905060008160010180546001816001161561010002031660029004905011610ae35760408051600160e51b62461bcd02815260206004820152601c60248201527f646f6d61696e207265636f726420646f6573206e6f7420657869737400000000604482015290519081900360640190fd5b610c4b888888888080601f01602080910402602001604051908101604052809392919081815260200183838082843760009201919091525050865460408051602060026000196101006001871615020190941693909304601f8101849004840282018401909252818152935088925090830182828015610ba45780601f10610b7957610100808354040283529160200191610ba4565b820191906000526020600020905b815481529060010190602001808311610b8757829003601f168201915b5050505050856001018054600181600116156101000203166002900480601f016020809104026020016040519081016040528092919081815260200182805460018160011615610100020316600290048015610c415780601f10610c1657610100808354040283529160200191610c41565b820191906000526020600020905b815481529060010190602001808311610c2457829003601f168201915b5050505050610c57565b98975050505050505050565b600080866001811115610c6657fe5b1415610e265773__RSASHA1_______________________________63c658da51868686866040518563ffffffff1660e01b815260040180858152602001806020018060200180602001848103845287818151815260200191508051906020019080838360005b83811015610ce4578181015183820152602001610ccc565b50505050905090810190601f168015610d115780820380516001836020036101000a031916815260200191505b50848103835286518152865160209182019188019080838360005b83811015610d44578181015183820152602001610d2c565b50505050905090810190601f168015610d715780820380516001836020036101000a031916815260200191505b50848103825285518152855160209182019187019080838360005b83811015610da4578181015183820152602001610d8c565b50505050905090810190601f168015610dd15780820380516001836020036101000a031916815260200191505b5097505050505050505060206040518083038186803b158015610df357600080fd5b505af4158015610e07573d6000803e3d6000fd5b505050506040513d6020811015610e1d57600080fd5b50519050610eeb565b6001866001811115610e3457fe5b1415610eb15773__RSASHA256_____________________________63c658da51868686866040518563ffffffff1660e01b8152600401808581526020018060200180602001806020018481038452878181518152602001915080519060200190808383600083811015610ce4578181015183820152602001610ccc565b604051600160e51b62461bcd028152600401808060200182810382526022815260200180610fd76022913960400191505060405180910390fd5b95945050505050565b828054600181600116156101000203166002900490600052602060002090601f016020900481019282601f10610f3557805160ff1916838001178555610f62565b82800160010185558215610f62579182015b82811115610f62578251825591602001919060010190610f47565b50610f6e929150610fb9565b5090565b50805460018160011615610100020316600290046000825580601f10610f985750610fb6565b601f016020900490600052602060002090810190610fb69190610fb9565b50565b610fd391905b80821115610f6e5760008155600101610fbf565b9056fe7369676e696e6720616c676f726974686d206973206e6f7420737570706f727465646f6e6c7920746865206f7261636c6520697320616c6c6f77656420746f2075736520746869732066756e6374696f6ea165627a7a72305820c6fa853609da1d6617402540c23e1f28eedb6658616fe2410f29bd6685f4beb50029",
  "source": "pragma solidity ^0.5.8;\n\nimport \"./DKIM.sol\";\n\ncontract Service is DKIM {\n  struct Record {\n    bytes exponent;\n    bytes modulus;\n  }\n\n  address public oracle;\n  mapping (string => Record) public records;\n\n  modifier onlyOracle() {\n    require(msg.sender == oracle, \"only the oracle is allowed to use this function\");\n    _;\n  }\n\n  event LookupRecord(\n    string domain\n  );\n\n  constructor(address _oracle) public {\n    oracle = _oracle;\n  }\n\n  function setRecord(\n    string calldata domain,\n    bytes calldata exponent,\n    bytes calldata modulus\n  ) external onlyOracle {\n    records[domain] = Record(\n      exponent,\n      modulus\n    );\n  }\n\n  function removeRecord(\n    string calldata domain\n  ) external onlyOracle {\n    delete records[domain];\n  }\n\n  function lookupRecord(\n    string calldata domain\n  ) external {\n    emit LookupRecord(domain);\n  }\n\n  function verifySelf(\n    Algorithms algorithm,\n    bytes32 hash,\n    bytes calldata signature,\n    bytes calldata exponent,\n    bytes calldata modulus\n  ) external view returns (bool) {\n    return _verify(\n      algorithm,\n      hash,\n      signature,\n      exponent,\n      modulus\n    );\n  }\n\n  function verify(\n    Algorithms algorithm,\n    bytes32 hash,\n    bytes calldata signature,\n    string calldata domain\n  ) external view returns (bool) {\n    Record storage record = records[domain];\n    require(record.modulus.length > 0, \"domain record does not exist\");\n\n    return _verify(\n      algorithm,\n      hash,\n      signature,\n      record.exponent,\n      record.modulus\n    );\n  }\n}",
  "sourcePath": "/c/Users/stive/Documents/work/adex/dkim/contracts/Service.sol",
  "compiler": {
    "name": "solc",
    "version": "0.5.8+commit.23d335f2.Emscripten.clang"
  },
  "schemaVersion": "3.0.17",
  "updatedAt": "2019-11-10T23:22:22.749Z",
  "networkType": "ethereum",
  "devdoc": {
    "methods": {}
  },
  "userdoc": {
    "methods": {}
  }
}